:100000000C945A000C9454050C9477000C947700CF
:100010000C9477000C9477000C9477000C94770084
:100020000C9477000C9477000C9477000C94770074
:100030000C9477000C9477000C9477000C94770064
:100040000C9477000C9477000C94B8040C9477000F
:100050000C94EF040C9479000C9477000C947700C6
:100060000C9477000C9477000C9477000C94770034
:100070000C9477000C9477000C9477000C94770024
:100080000C9477000C9477000C9477000C94770014
:100090000C9477000C9477000C9477000C94770004
:1000A0000C943B030C9477000C9477000C9477002D
:1000B0000C94770011241FBECFEFD8E0DEBFCDBF78
:1000C00011E0A0E0B1E0E4EDF4E102C005900D9292
:1000D000AA3CB107D9F722E0AAECB1E001C01D9219
:1000E000A336B207E1F70E947D050C94680A0C94D0
:1000F00000001F920F920FB60F9211248F9381E090
:10010000809300018F910F900FBE0F901F90189554
:10011000ECE7F0E08081806C8083EAE7F0E08081AA
:100120008F6880830895ECE7F0E09081907F908362
:100130009081892B80830895EAE7F0E080818068D0
:10014000808310920001808180648083809100010F
:100150008823E1F32091780080917900EAE7F0E0CC
:1001600090819F77908390E0982F8827822B089525
:100170000E9493000E949C00BC0180E090E00E94DD
:1001800047062DEC3EE148E95FE30E94AD060E9480
:100190001806CB010895662399F0DC01ED91FC91DE
:1001A000119721E030E0A90112960C9002C0440F93
:1001B000551F0A94E2F7CA019081892B8083089524
:1001C000DC01ED91FC91119721E030E0A90112963C
:1001D0000C9002C0440F551F0A94E2F7CA018095A3
:1001E0009081892380830895FC01308121816130D1
:1001F00099F018F06230F1F0089581E090E002800B
:1002000002C0880F991F0A94E2F7E32FF22F80951E
:10021000929189238083089581E090E0028002C05A
:10022000880F991F0A94E2F7E32FF22F9291892BFE
:100230008083089581E090E0AC01028002C0440F09
:10024000551F0A94E2F7A32FB22F40952E91422317
:100250004C93A081B181028002C0880F991F0A943B
:10026000E2F780959C9189238C930895DC01ED91B0
:10027000FC91119721E030E0A90112960C9002C088
:10028000440F551F0A94E2F73297408308958091F6
:10029000CA0180618093CA018091CB018161809302
:1002A000CB0122E030E041E051E06BE082E30E94CC
:1002B000C70321E030E04BEC51E06DE082E30E94A7
:1002C000C70321E030E04AEC51E06FE082E30E9496
:1002D000C7030895982F92959F70990F292F220F89
:1002E000220F920F8F70890F08950F931F93CF9352
:1002F000DF93CDB7DEB727970FB6F894DEBF0FBEFA
:10030000CDBF8C0127E030E0AE014F5F5F4F60E072
:1003100082E30E944C0389810E946A01F801808374
:100320008A810E946A01F80181838B810E946A019F
:10033000F80182838C8187838D810E946A01F80194
:1003400083838E810E946A01F80184838F810E94D9
:100350006A0190E0F8019683858327960FB6F8949A
:10036000DEBF0FBECDBFDF91CF911F910F910895DA
:100370009DEC899F912D1124969596959695392FF0
:10038000330F232F220F220F230F821B20E1929F76
:10039000800D112408950F931F93CF93DF93CDB752
:1003A000DEB727970FB6F894DEBF0FBECDBF8C0126
:1003B000FC0180810E94B8018983F80181810E943B
:1003C000B8018A83F80182810E94B8018B83F80109
:1003D00087818C8383810E94B8018D83F801848199
:1003E0000E94B8018E83F80185810E94B8018F8335
:1003F00027E030E0AE014F5F5F4F60E082E30E9494
:10040000C70327960FB6F894DEBF0FBECDBFDF91AE
:10041000CF911F910F9108950F931F93CF93DF9367
:10042000CDB7DEB763970FB6F894DEBF0FBECDBF72
:10043000182F85EA89838AE58A8300E1AE014D5F42
:100440005F4FFA01802F11928A95E9F720E130E0A1
:1004500062EA812F0E94540442E050E0BE016F5FC7
:100460007F4F812F0E9414040B8B21E030E0AE01FE
:100470004D5E5F4F60E0812F0E94C70363960FB609
:10048000F894DEBF0FBECDBFDF91CF911F910F91CA
:1004900008950F931F93CF93DF931F92CDB7DEB7CD
:1004A000182F198221E030E0AE014F5F5F4F60E00E
:1004B0000E94C70321E030E0AE014F5F5F4F61E073
:1004C000812F0E94C70322E030E04CEC51E062EA49
:1004D000812F0E945404198221E030E0AE014F5F69
:1004E0005F4F62E1812F0E94C7038FEF898321E074
:1004F00030E0AE014F5F5F4F63E1812F0E94C70381
:100500000AEA098321E030E0AE014F5F5F4F64E10A
:10051000812F0E94C703098321E030E0AE014F5FC5
:100520005F4F65E1812F0E94C703098321E030E01E
:10053000AE014F5F5F4F66E1812F0E94C7030983C1
:1005400021E030E0AE014F5F5F4F67E1812F0E94F5
:10055000C70381E00F90DF91CF911F910F91089514
:1005600085EA8093DC0080E090E005C0019680344D
:1005700026E0920730F4209103012830B9F780E09B
:10058000089581E0089585E98093DC00089585EA67
:100590008093DC0080E090E005C00196803426E086
:1005A000920730F4209103012031B9F780E00895DB
:1005B00081E0089585E88093DC0080E090E005C04C
:1005C0000196803426E0920730F42091030128310F
:1005D000B9F780E0089581E0089585E88093DC0014
:1005E00080E090E005C00196803426E0920730F468
:1005F000209103012832B9F780E0089581E0089541
:1006000085E88093DC0080E090E005C001968034AE
:1006100026E0920730F4209103012034B9F780E0FE
:10062000089581E00895882389F085EC8093DC00AB
:1006300080E090E005C00196803426E09207B8F48F
:10064000209103012035B9F780E0089585E8809373
:10065000DC0080E090E005C00196803426E092073F
:1006600040F4209103012835B9F780E0089581E036
:10067000089581E008951F920F920FB60F921124F2
:100680008F938091D900887F809303018F910F9081
:100690000FBE0F901F901895CF92DF92EF92FF92AE
:1006A0000F931F93CF93D82EC62E7A0189010E94F3
:1006B000B002C82F882321F00E94C3028C2F5FC094
:1006C0008D2D880F8093DB000E94DA02C82F8823CB
:1006D00021F00E94C3028C2F52C0C092DB000E9406
:1006E000ED02C82F882321F00E94C3028C2F47C03F
:1006F0000E94C702C82F882321F00E94C3028C2FBA
:100700003EC08D2D90E0880F991F81608093DB00A3
:100710000E940003C82F8823C1F00E94C3028C2FBF
:100720002EC081E00E941303C82F882321F00E946D
:10073000C3028C2F24C0F701EC0DFD1D8091DB005E
:1007400080838FEFC81AD80A02C0C12CD12CC801EF
:100750000197C816D90628F380E00E941303C82F1A
:10076000882321F00E94C3028C2F09C0F701EC0DF1
:10077000FD1D8091DB0080830E94C3028C2FCF91EE
:100780001F910F91FF90EF90DF90CF900895CF923F
:10079000DF92EF92FF920F931F93CF93182F062FA4
:1007A0006A0179010E94B002C82F882321F00E94BB
:1007B000C3028C2F31C0110F1093DB000E94DA02AC
:1007C000C82F882321F00E94C3028C2F25C00093DC
:1007D000DB000E94ED02C82F8823B1F00E94C30203
:1007E0008C2F1AC0F601E00FF11F80818093DB008F
:1007F0000E94ED02C82F882321F00E94C3028C2F93
:100800000BC00F5F1F4F02C000E010E00E151F0568
:1008100048F30E94C3028C2FCF911F910F91FF903C
:10082000EF90DF90CF900895CF92DF92EF92FF92FA
:100830001F93CF93DF93C82F6B017A010E94B00200
:10084000182F882321F00E94C302812F25C0CC0FCE
:10085000C093DB000E94DA02182F8823A9F00E94BF
:10086000C302812F19C0F601EC0FFD1F8081809318
:10087000DB000E94ED02182F882321F00E94C302A2
:10088000812F0AC0219602C0C0E0D0E0CE15DF055E
:1008900050F30E94C302812FDF91CF911F91FF90EF
:1008A000EF90DF90CF900895CF92DF92EF92FF927A
:1008B0000F931F93CF93182F062F6A0179010E947F
:1008C000B002C82F882321F00E94C3028C2F31C0B0
:1008D000110F1093DB000E94DA02C82F882321F049
:1008E0000E94C3028C2F25C00093DB000E94ED0202
:1008F000C82F8823B1F00E94C3028C2F1AC0F601C2
:10090000E00FF11F80818093DB000E94ED02C82F71
:10091000882321F00E94C3028C2F0BC00F5F1F4F52
:1009200002C000E010E00E151F0548F30E94C3024C
:100930008C2FCF911F910F91FF90EF90DF90CF9070
:1009400008959B01AC0160E072E18AE790E00E94AB
:100950004207DA01C9014097A109B109B695A795E7
:10096000979587958093D80085E08093DC00089563
:100970001F920F920FB60F9211248F939F93EF93B4
:10098000FF93E0915C02F0915D028091C600E45219
:10099000FE4F8083E0915C02F0915D02E452FE4FD5
:1009A00080818D3051F481E080930401E0915C02FC
:1009B000F0915D02E352FE4F108280915C029091B3
:1009C0005D02019690935D0280935C02FF91EF912E
:1009D0009F918F910F900FBE0F901F9018951F92AF
:1009E0000F920FB60F9211248F9381E0809305012F
:1009F0008F910F900FBE0F901F901895442339F0E0
:100A0000E0ECF0E0208122602083A8E001C0A0E1BA
:100A1000B0E09B01AC010E9464079B01AC0160E067
:100A200072E18AE790E00E944207BA01A9014150B1
:100A3000510961097109DB01CA0188279F70AA2742
:100A4000BB27892F9A2FAB2FBB278093C5004093DC
:100A5000C400E1ECF0E08081886D808386E88093BB
:100A6000C2000895909105019923E1F310920501C8
:100A70008093C60008950F931F93CF93DF938C014B
:100A8000C0E0D0E0F801EC0FFD1F80810E9432052C
:100A90002196F801EC0FFD1F80818111F3CFDF91CA
:100AA000CF911F910F9108951F920F920FB60F9241
:100AB00011242F933F934F935F936F937F938F9363
:100AC0009F93AF93BF93EF93FF9381E08093620274
:100AD0008FE091E00E943601FF91EF91BF91AF91BD
:100AE0009F918F917F916F915F914F913F912F9146
:100AF0000F900FBE0F901F901895CF93DF93CDB737
:100B0000DEB7C058D1090FB6F894DEBF0FBECDBF17
:100B100080911501909116019A838983FE01339685
:100B20008EE7DF011D928A95E9F741E060E875E202
:100B300080E090E00E94FE0460E87AE186E090E0C8
:100B40000E94A104E9E6F0E080818260808381E078
:100B50008DBB61E08FE091E00E94F40061E08FE0E6
:100B600091E00E94CB0060E082E191E00E94F400FD
:100B7000789487E091E00E94CB0160E070E087E02C
:100B800091E00E9447010E948800809106010E9426
:100B90000C02809106010E94490285E991E00E94C1
:100BA0003B0583B7816083BF83B7817F846083BF48
:100BB000809162028823D1F187E091E00E94750163
:100BC00084E00E94B800909361028093600285E007
:100BD0000E94B80080935E0290935F02E7E0F1E02C
:100BE0004081318122819F938F93809161028F9305
:100BF000809160028F931F924F931F923F931F9299
:100C00002F938BE991E09F938F938E010F5F1F4F7E
:100C10001F930F930E947E07C8010E943B0510920C
:100C200062020FB6F894DEBF0FBECDBF8895C0CF6D
:100C30000E948C0688F09F5798F0B92F9927B751DA
:100C4000B0F0E1F0660F771F881F991F1AF0BA9570
:100C5000C9F714C0B13091F00E94A606B1E0089522
:100C60000C94A606672F782F8827B85F39F0B93F14
:100C7000CCF3869577956795B395D9F73EF4909523
:100C80008095709561957F4F8F4F9F4F0895E894A1
:100C900009C097FB3EF490958095709561957F4FC4
:100CA0008F4F9F4F9923A9F0F92F96E9BB27939572
:100CB000F695879577956795B795F111F8CFFAF482
:100CC000BB0F11F460FF1BC06F5F7F4F8F4F9F4FB3
:100CD00016C0882311F096E911C0772321F09EE811
:100CE000872F762F05C0662371F096E8862F70E077
:100CF00060E02AF09A95660F771F881FDAF7880F51
:100D00009695879597F9089557FD9058440F551F6C
:100D100059F05F3F71F04795880F97FB991F61F07D
:100D20009F3F79F087950895121613061406551FF4
:100D3000F2CF4695F1DF08C0161617061806991F60
:100D4000F1CF86957105610508940895E894BB2755
:100D500066277727CB0197F908950E94C0060C9467
:100D600031070E94230738F00E942A0720F09523BC
:100D700011F00C941A070C94200711240C94A70668
:100D80000E94840670F3959FC1F3950F50E0551FA4
:100D9000629FF001729FBB27F00DB11D639FAA27D0
:100DA000F00DB11DAA1F649F6627B00DA11D661F1F
:100DB000829F2227B00DA11D621F739FB00DA11D40
:100DC000621F839FA00D611D221F749F3327A00DFA
:100DD000611D231F849F600D211D822F762F6A2F96
:100DE00011249F5750409AF0F1F088234AF0EE0FFB
:100DF000FF1FBB1F661F771F881F91505040A9F728
:100E00009E3F510580F00C941A070C94A7065F3F93
:100E1000E4F3983ED4F3869577956795B795F79563
:100E2000E7959F5FC1F7FE2B880F911D96958795DB
:100E300097F9089597F99F6780E870E060E008955A
:100E40009FEF80EC089500240A94161617061806E2
:100E50000906089500240A941216130614060506BE
:100E60000895092E0394000C11F4882352F0BB0F4F
:100E700040F4BF2B11F460FF04C06F5F7F4F8F4FB2
:100E80009F4F0895A1E21A2EAA1BBB1BFD010DC0A6
:100E9000AA1FBB1FEE1FFF1FA217B307E407F5072A
:100EA00020F0A21BB30BE40BF50B661F771F881F06
:100EB000991F1A9469F760957095809590959B019C
:100EC000AC01BD01CF0108950E946F07A59F900D51
:100ED000B49F900DA49F800D911D11240895A29F91
:100EE000B001B39FC001A39F700D811D1124911DFE
:100EF000B29F700D811D1124911D0895AEE0B0E0E8
:100F0000E4E8F7E00C943F0A0D891E8986E08C83A3
:100F10001A8309838FEF9FE79E838D83AE01475E1F
:100F20005F4F6F89788DCE0101960E94A007EF81F7
:100F3000F885E00FF11F10822E96E4E00C945B0A16
:100F4000ABE0B0E0E6EAF7E00C94310A6C017B011B
:100F50008A01FC0117821682838181FFCCC1CE01F8
:100F600001963C01F6019381F70193FD859193FF72
:100F700081917F01882309F4BAC1853239F493FD48
:100F8000859193FF81917F01853229F4B60190E02C
:100F90000E949709E7CF912C212C312CFFE1F3150A
:100FA000D8F08B3279F038F4803279F08332A1F4C2
:100FB000232D20611DC08D3261F0803369F4232D13
:100FC000216016C0832D8260382EE32DE4603E2E12
:100FD0002AC0F32DF8601DC037FC2DC020ED280F6E
:100FE0002A3040F08E32B9F436FC81C1232D2064C2
:100FF000322E19C036FE06C08AE0989E200D1124BC
:10100000922E11C0EAE02E9E200D1124222EF32DE7
:10101000F0623F2E08C08C3621F4832D8068382E74
:1010200002C0883641F4F70193FD859193FF8191C9
:101030007F018111B3CF982F9F7D9554933028F471
:101040000C5F1F4F9FE399830DC0833631F08337C8
:1010500071F0833509F059C021C0F801808189837E
:101060000E5F1F4F88248394912C530113C02801D5
:10107000F2E04F0E511CF801A080B18036FE03C093
:10108000692D70E002C06FEF7FEFC5010E948C09EF
:101090004C018201F32DFF773F2E16C0280122E07C
:1010A000420E511CF801A080B18036FE03C0692DAC
:1010B00070E002C06FEF7FEFC5010E9481094C0113
:1010C000F32DF0683F2E820133FC1BC0822D90E08F
:1010D00088169906B0F4B60180E290E00E94970964
:1010E0002A94F4CFF50137FC859137FE81915F0199
:1010F000B60190E00E94970921102A9421E0821AFB
:1011000091088114910471F7E8C0843611F0893692
:1011100041F5F80137FE07C06081718182819381BA
:101120000C5F1F4F08C060817181072E000C880B77
:10113000990B0E5F1F4FF32DFF763F2E97FF09C0CF
:1011400090958095709561957F4F8F4F9F4FF06878
:101150003F2E2AE030E0A3010E94D309882E861892
:1011600045C0853731F4232D2F7EB22E2AE030E0A2
:1011700025C0932D997FB92E8F36C1F018F488358C
:1011800079F0B5C0803719F0883721F0B0C0E92F69
:10119000E061BE2EB4FE0DC0FB2DF460BF2E09C071
:1011A00034FE0AC0292F2660B22E06C028E030E0A7
:1011B00005C020E130E002C020E132E0F801B7FED6
:1011C00007C060817181828193810C5F1F4F06C0CF
:1011D0006081718180E090E00E5F1F4FA3010E944B
:1011E000D309882E8618FB2DFF773F2E36FE0DC0C3
:1011F000232D2E7FA22E891458F434FE0BC032FC0E
:1012000009C0832D8E7EA82E05C0B82CA32C03C048
:10121000B82C01C0B92CA4FE0FC0FE01E80DF11DD1
:101220008081803321F49A2D997EA92E09C0A2FED7
:1012300006C0B394B39404C08A2D867809F0B394A1
:10124000A3FC11C0A0FE06C0B21488F4280C922C96
:101250009B180EC0B21460F4B60180E290E00E94C8
:101260009709B394F7CFB21418F42B1802C0982C36
:10127000212CA4FE10C0B60180E390E00E949709E3
:10128000A2FE17C0A1FC03C088E790E002C088E579
:1012900090E0B6010CC08A2D867859F0A1FE02C0FC
:1012A0008BE201C080E2A7FC8DE2B60190E00E94D3
:1012B0009709891438F4B60180E390E00E949709F9
:1012C0009A94F7CF8A94F301E80DF11D8081B6015D
:1012D00090E00E9497098110F5CF222009F442CEB8
:1012E000B60180E290E00E9497092A94F6CFF601B9
:1012F0008681978102C08FEF9FEF2B96E2E10C94DD
:101300004D0AFC010590615070400110D8F780959E
:1013100090958E0F9F1F0895FC01615070400190C1
:101320000110D8F7809590958E0F9F1F08950F9309
:101330001F93CF93DF93FB01238121FD03C08FEF28
:101340009FEF2CC022FF16C0468157812481358132
:101350004217530744F4A081B1819D012F5F3F4F95
:10136000318320838C93268137812F5F3F4F3783D2
:10137000268314C08B01EC01FB010084F185E02D74
:101380000995892BE1F6D80116968D919C911797B6
:10139000019617969C938E931697CE01DF91CF916D
:1013A0001F910F910895FA01AA27283051F1203199
:1013B00081F1E8946F936E7F6E5F7F4F8F4F9F4FE9
:1013C000AF4FB1E03ED0B4E03CD0670F781F891F2B
:1013D0009A1FA11D680F791F8A1F911DA11D6A0FF9
:1013E000711D811D911DA11D20D009F468943F91AC
:1013F0002AE0269F11243019305D3193DEF6CF01AB
:101400000895462F4770405D4193B3E00FD0C9F770
:10141000F6CF462F4F70405D4A3318F0495D31FDDD
:101420004052419302D0A9F7EACFB4E0A695979530
:10143000879577956795BA95C9F700976105710506
:1014400008959B01AC010A2E069457954795379550
:101450002795BA95C9F7620F731F841F951FA01DAA
:1014600008952F923F924F925F926F927F928F9248
:101470009F92AF92BF92CF92DF92EF92FF920F9323
:101480001F93CF93DF93CDB7DEB7CA1BDB0B0FB62D
:10149000F894DEBF0FBECDBF09942A8839884888EA
:1014A0005F846E847D848C849B84AA84B984C88480
:1014B000DF80EE80FD800C811B81AA81B981CE0F77
:1014C000D11D0FB6F894DEBF0FBECDBFED0108955C
:0414D000F894FFCFBE
:1014D400014000F8010164001D13130617000625DE
:1014E40000052B00020000000000000000000000C6
:1014F40000000000000000000000000000000000E8
:1015040000000000000000000000000000000000D7
:1015140000000000000000000000000000000000C7
:1015240000000000000000000000000000000000B7
:1015340000000000000000000000000000000000A7
:101544000000000000000000000000000000000097
:101554000000000000000000000000000000000087
:10156400000000000052554E0A0D00253032643A46
:10157400253032643A253032643B206261743A2566
:10158400756D563B206C3D25753B20696E69743A38
:0A1594002025303258200D0A000017
:00000001FF
