:100000000C945A000C94A3050C9477000C94770080
:100010000C9477000C9477000C9477000C94770084
:100020000C9477000C9477000C9477000C94770074
:100030000C9477000C9477000C9477000C94770064
:100040000C9477000C9477000C9407050C947700BF
:100050000C943E050C9479000C9477000C94770076
:100060000C9477000C9477000C9477000C94770034
:100070000C9477000C9477000C9477000C94770024
:100080000C9477000C9477000C9477000C94770014
:100090000C9477000C9477000C9477000C94770004
:1000A0000C948A030C9477000C9477000C947700DE
:1000B0000C94770011241FBECFEFD8E0DEBFCDBF78
:1000C00011E0A0E0B1E0EEE6F5E102C005900D928E
:1000D000AC3EB107D9F722E0ACEEB1E001C01D9211
:1000E000A538B207E1F70E94CC050C94B50A0C9430
:1000F00000001F920F920FB60F9211248F9381E090
:10010000809300018F910F900FBE0F901F90189554
:10011000ECE7F0E08081806C8083EAE7F0E08081AA
:100120008F6880830895ECE7F0E09081907F908362
:100130009081892B80830895EAE7F0E080818068D0
:10014000808310920001808180648083809100010F
:100150008823E1F32091780080917900EAE7F0E0CC
:1001600090819F77908390E0982F8827822B089525
:100170000E9493000E949C00BC0180E090E00E94DD
:1001800094062DEC3EE148E95FE30E94FA060E94E6
:100190006506CB010895662399F0DC01ED91FC9191
:1001A000119721E030E0A90112960C9002C0440F93
:1001B000551F0A94E2F7CA019081892B8083089524
:1001C000DC01ED91FC91119721E030E0A90112963C
:1001D0000C9002C0440F551F0A94E2F7CA018095A3
:1001E0009081892380830895FC01308121816130D1
:1001F00099F018F06230F1F0089581E090E002800B
:1002000002C0880F991F0A94E2F7E32FF22F80951E
:10021000929189238083089581E090E0028002C05A
:10022000880F991F0A94E2F7E32FF22F9291892BFE
:100230008083089581E090E0AC01028002C0440F09
:10024000551F0A94E2F7A32FB22F40952E91422317
:100250004C93A081B181028002C0880F991F0A943B
:10026000E2F780959C9189238C930895DC01ED91B0
:10027000FC91119721E030E0A90112960C9002C088
:10028000440F551F0A94E2F73297408308958091F6
:10029000EC0180618093EC018091ED01816180939C
:1002A000ED0122E030E041E051E06BE082E30E94AA
:1002B000160421E030E04DEE51E06DE082E30E9453
:1002C000160421E030E04CEE51E06FE082E30E9442
:1002D00016040895982F92959F70990F292F220F39
:1002E000220F920F8F70890F08950F931F93CF9352
:1002F000DF93CDB7DEB727970FB6F894DEBF0FBEFA
:10030000CDBF8C0127E030E0AE014F5F5F4F60E072
:1003100082E30E949B0389810E946A01F801808325
:100320008A810E946A01F80181838B810E946A019F
:10033000F80182838C8187838D810E946A01F80194
:1003400083838E810E946A01F80184838F810E94D9
:100350006A0190E0F8019683858327960FB6F8949A
:10036000DEBF0FBECDBFDF91CF911F910F910895DA
:100370009DEC899F912D1124969596959695392FF0
:10038000330F232F220F220F230F821B20E1929F76
:10039000800D112408950F931F93CF93DF93CDB752
:1003A000DEB727970FB6F894DEBF0FBECDBF8C0126
:1003B000FC0180810E94B8018983F80181810E943B
:1003C000B8018A83F80182810E94B8018B83F80109
:1003D00087818C8383810E94B8018D83F801848199
:1003E0000E94B8018E83F80185810E94B8018F8335
:1003F00027E030E0AE014F5F5F4F60E082E30E9494
:10040000160427960FB6F894DEBF0FBECDBFDF915E
:10041000CF911F910F9108950F931F93CF93DF9367
:10042000CDB7DEB763970FB6F894DEBF0FBECDBF72
:10043000182F85EA89838AE58A8300E1AE014D5F42
:100440005F4FFA01802F11928A95E9F720E130E0A1
:1004500062EA812F0E94A30442E050E0BE016F5F78
:100460007F4F812F0E9463040B8B21E030E0AE01AF
:100470004D5E5F4F60E0812F0E94160463960FB6B9
:10048000F894DEBF0FBECDBFDF91CF911F910F91CA
:100490000895EF92FF920F931F93CF93DF93CDB701
:1004A000DEB761970FB6F894DEBF0FBECDBF182F31
:1004B000CE0101967C0180E1F70111928A95E9F75E
:1004C000198A21E030E0AE014F5E5F4F60E0812F7E
:1004D0000E94160421E030E0AE014F5E5F4F61E004
:1004E000812F0E94160420E130E0A70162EA812FEB
:1004F0000E94A304198A21E030E0AE014F5E5F4FF5
:1005000062E1812F0E9416048FEF898B21E030E099
:10051000AE014F5E5F4F63E1812F0E9416040AEA2D
:10052000098B21E030E0AE014F5E5F4F64E1812F27
:100530000E941604098B21E030E0AE014F5E5F4F50
:1005400065E1812F0E941604098B21E030E0AE01A5
:100550004F5E5F4F66E1812F0E941604098B21E0F8
:1005600030E0AE014F5E5F4F67E1812F0E941604BD
:1005700081E061960FB6F894DEBF0FBECDBFDF916C
:10058000CF911F910F91FF90EF900895242F30E0AD
:10059000AB0162EA0E94A3040895FF920F931F9398
:1005A000CF93DF938C01EB01F12C20C0822F90E0E0
:1005B000DE01A80FB91F8F0D911DF801E80FF91F7B
:1005C00080818C932F5F01C020E0203178F340E1DF
:1005D000BE0184E60E94C6022FE788E391E0215025
:1005E00080409040E1F700C00000F3942FE02F1509
:1005F00058F7DF91CF911F910F91FF90089585EAF1
:100600008093DC0080E090E005C00196803426E015
:10061000920730F4209103012830B9F780E0089563
:1006200081E0089585E98093DC00089585EA809350
:10063000DC0080E090E005C00196803426E092075F
:1006400030F4209103012031B9F780E0089581E072
:10065000089585E88093DC0080E090E005C0019675
:10066000803426E0920730F4209103012831B9F755
:1006700080E0089581E0089585E88093DC0080E0C3
:1006800090E005C00196803426E0920730F4209176
:1006900003012832B9F780E0089581E0089585E8E4
:1006A0008093DC0080E090E005C00196803426E075
:1006B000920730F4209103012034B9F780E00895C7
:1006C00081E00895882389F085EC8093DC0080E048
:1006D00090E005C00196803426E09207B8F420919E
:1006E00003012035B9F780E0089585E88093DC00A8
:1006F00080E090E005C00196803426E0920740F447
:10070000209103012835B9F780E0089581E008952C
:1007100081E008951F920F920FB60F9211248F93CC
:100720008091D900887F809303018F910F900FBE35
:100730000F901F901895CF92DF92EF92FF920F9338
:100740001F93CF93D82EC62E7A0189010E94FF02F3
:10075000C82F882321F00E9412038C2F5FC08D2D9B
:10076000880F8093DB000E942903C82F882321F083
:100770000E9412038C2F52C0C092DB000E943C03E7
:10078000C82F882321F00E9412038C2F47C00E949B
:100790001603C82F882321F00E9412038C2F3EC01D
:1007A0008D2D90E0880F991F81608093DB000E945F
:1007B0004F03C82F8823C1F00E9412038C2F2EC034
:1007C00081E00E946203C82F882321F00E94120357
:1007D0008C2F24C0F701EC0DFD1D8091DB00808380
:1007E0008FEFC81AD80A02C0C12CD12CC8010197BA
:1007F000C816D90628F380E00E946203C82F882318
:1008000021F00E9412038C2F09C0F701EC0DFD1D91
:100810008091DB0080830E9412038C2FCF911F9167
:100820000F91FF90EF90DF90CF900895CF92DF92DD
:10083000EF92FF920F931F93CF93182F062F6A0109
:1008400079010E94FF02C82F882321F00E94120321
:100850008C2F31C0110F1093DB000E942903C82F89
:10086000882321F00E9412038C2F25C00093DB0007
:100870000E943C03C82F8823B1F00E9412038C2FE2
:100880001AC0F601E00FF11F80818093DB000E9407
:100890003C03C82F882321F00E9412038C2F0BC029
:1008A0000F5F1F4F02C000E010E00E151F0548F358
:1008B0000E9412038C2FCF911F910F91FF90EF9008
:1008C000DF90CF900895CF92DF92EF92FF921F9327
:1008D000CF93DF93C82F6B017A010E94FF02182F7C
:1008E000882321F00E941203812F25C0CC0FC093D2
:1008F000DB000E942903182F8823A9F00E9412030D
:10090000812F19C0F601EC0FFD1F80818093DB0061
:100910000E943C03182F882321F00E941203812F8C
:100920000AC0219602C0C0E0D0E0CE15DF0550F32A
:100930000E941203812FDF91CF911F91FF90EF90C2
:10094000DF90CF900895CF92DF92EF92FF920F93B6
:100950001F93CF93182F062F6A0179010E94FF027F
:10096000C82F882321F00E9412038C2F31C0110F51
:100970001093DB000E942903C82F882321F00E94D6
:1009800012038C2F25C00093DB000E943C03C82F6C
:100990008823B1F00E9412038C2F1AC0F601E00FD9
:1009A000F11F80818093DB000E943C03C82F8823C5
:1009B00021F00E9412038C2F0BC00F5F1F4F02C04B
:1009C00000E010E00E151F0548F30E9412038C2F63
:1009D000CF911F910F91FF90EF90DF90CF900895EE
:1009E0009B01AC0160E072E18AE790E00E948F0712
:1009F000DA01C9014097A109B109B695A795979564
:100A000087958093D80085E08093DC0008951F923D
:100A10000F920FB60F9211248F939F93EF93FF9332
:100A2000E0916E02F0916F028091C600E251FE4F9C
:100A30008083E0916E02F0916F02E251FE4F80815F
:100A40008D3051F481E080930401E0916E02F091C9
:100A50006F02E151FE4F108280916E0290916F0201
:100A6000019690936F0280936E02FF91EF919F9198
:100A70008F910F900FBE0F901F9018951F920F929D
:100A80000FB60F9211248F9381E0809305018F910F
:100A90000F900FBE0F901F901895442339F0E0EC93
:100AA000F0E0208122602083A8E001C0A0E1B0E056
:100AB0009B01AC010E94B1079B01AC0160E072E1B7
:100AC0008AE790E00E948F07BA01A90141505109BD
:100AD00061097109DB01CA0188279F70AA27BB271A
:100AE000892F9A2FAB2FBB278093C5004093C4005A
:100AF000E1ECF0E08081886D808386E88093C2001D
:100B00000895909105019923E1F3109205018093D6
:100B1000C60008950F931F93CF93DF938C01C0E01D
:100B2000D0E0F801EC0FFD1F80810E948105219625
:100B3000F801EC0FFD1F80818111F3CFDF91CF9180
:100B40001F910F9108951F920F920FB60F921124CB
:100B50002F933F934F935F936F937F938F939F93C5
:100B6000AF93BF93EF93FF9381E08093740282E38E
:100B700091E00E943601FF91EF91BF91AF919F915B
:100B80008F917F916F915F914F913F912F910F9036
:100B90000FBE0F901F901895CF93DF93CDB7DEB7A0
:100BA000C058D1090FB6F894DEBF0FBECDBF8091FB
:100BB0003801909139019A838983FE0133968EE73B
:100BC000DF011D928A95E9F741E060E875E280E077
:100BD00090E00E944D0560E87AE186E090E00E9496
:100BE000F004E9E6F0E080818260808381E08DBBE3
:100BF00061E082E391E00E94F40061E082E391E031
:100C00000E94CB0060E085E391E00E94F4007894BC
:100C10008AE291E00E94CB0160E070E08AE291E01C
:100C20000E9447010E948800809129010E940C02C5
:100C3000809129010E94490288EB91E00E948A0577
:100C4000809174028823E1F38AE291E00E947501A9
:100C500084E00E94B800909373028093720285E052
:100C60000E94B8008093700290937102EAE2F1E072
:100C70004081318122819F938F93809173028F9362
:100C8000809172028F931F924F931F923F931F92F6
:100C90002F938EEB91E09F938F938E010F5F1F4FE9
:100CA0001F930F930E94CB07C8010E948A051092E0
:100CB000740265E772E086E091E00E94CD020FB613
:100CC000F894DEBF0FBECDBFBBCF0E94D90688F01F
:100CD0009F5798F0B92F9927B751B0F0E1F0660F00
:100CE000771F881F991F1AF0BA95C9F714C0B13041
:100CF00091F00E94F306B1E008950C94F306672F7B
:100D0000782F8827B85F39F0B93FCCF3869577956F
:100D10006795B395D9F73EF4909580957095619558
:100D20007F4F8F4F9F4F0895E89409C097FB3EF483
:100D300090958095709561957F4F8F4F9F4F992328
:100D4000A9F0F92F96E9BB279395F69587957795A6
:100D50006795B795F111F8CFFAF4BB0F11F460FF66
:100D60001BC06F5F7F4F8F4F9F4F16C0882311F0BE
:100D700096E911C0772321F09EE8872F762F05C0D2
:100D8000662371F096E8862F70E060E02AF09A956D
:100D9000660F771F881FDAF7880F9695879597F962
:100DA000089557FD9058440F551F59F05F3F71F05B
:100DB0004795880F97FB991F61F09F3F79F08795C2
:100DC0000895121613061406551FF2CF4695F1DF4B
:100DD00008C0161617061806991FF1CF86957105DB
:100DE000610508940895E894BB2766277727CB010F
:100DF00097F908950E940D070C947E070E947007D2
:100E000038F00E94770720F0952311F00C946707C3
:100E10000C946D0711240C94F4060E94D10670F313
:100E2000959FC1F3950F50E0551F629FF001729F8F
:100E3000BB27F00DB11D639FAA27F00DB11DAA1F9E
:100E4000649F6627B00DA11D661F829F2227B00DEB
:100E5000A11D621F739FB00DA11D621F839FA00D76
:100E6000611D221F749F3327A00D611D231F849FC6
:100E7000600D211D822F762F6A2F11249F5750401D
:100E80009AF0F1F088234AF0EE0FFF1FBB1F661F98
:100E9000771F881F91505040A9F79E3F510580F061
:100EA0000C9467070C94F4065F3FE4F3983ED4F388
:100EB000869577956795B795F795E7959F5FC1F705
:100EC000FE2B880F911D9695879597F9089597F9B0
:100ED0009F6780E870E060E008959FEF80EC0895E0
:100EE00000240A9416161706180609060895002409
:100EF0000A9412161306140605060895092E039483
:100F0000000C11F4882352F0BB0F40F4BF2B11F4F6
:100F100060FF04C06F5F7F4F8F4F9F4F0895A1E226
:100F20001A2EAA1BBB1BFD010DC0AA1FBB1FEE1F63
:100F3000FF1FA217B307E407F50720F0A21BB30BAE
:100F4000E40BF50B661F771F881F991F1A9469F72A
:100F500060957095809590959B01AC01BD01CF0186
:100F600008950E94BC07A59F900DB49F900DA49F6B
:100F7000800D911D11240895A29FB001B39FC0015F
:100F8000A39F700D811D1124911DB29F700D811DB5
:100F90001124911D0895AEE0B0E0E1EDF7E00C946E
:100FA0008C0A0D891E8986E08C831A8309838FEF52
:100FB0009FE79E838D83AE01475E5F4F6F89788D7B
:100FC000CE0101960E94ED07EF81F885E00FF11F39
:100FD00010822E96E4E00C94A80AABE0B0E0E3EFB8
:100FE000F7E00C947E0A6C017B018A01FC011782F8
:100FF0001682838181FFCCC1CE0101963C01F601AE
:101000009381F70193FD859193FF81917F0188235F
:1010100009F4BAC1853239F493FD859193FF81912A
:101020007F01853229F4B60190E00E94E409E7CF00
:10103000912C212C312CFFE1F315D8F08B3279F073
:1010400038F4803279F08332A1F4232D20611DC061
:101050008D3261F0803369F4232D216016C0832D19
:101060008260382EE32DE4603E2E2AC0F32DF86016
:101070001DC037FC2DC020ED280F2A3040F08E32E5
:10108000B9F436FC81C1232D2064322E19C036FEFE
:1010900006C08AE0989E200D1124922E11C0EAE02D
:1010A0002E9E200D1124222EF32DF0623F2E08C01B
:1010B0008C3621F4832D8068382E02C0883641F4A6
:1010C000F70193FD859193FF81917F018111B3CF4A
:1010D000982F9F7D9554933028F40C5F1F4F9FE30A
:1010E00099830DC0833631F0833771F0833509F071
:1010F00059C021C0F801808189830E5F1F4F882469
:101100008394912C530113C02801F2E04F0E511C1F
:10111000F801A080B18036FE03C0692D70E002C0E6
:101120006FEF7FEFC5010E94D9094C018201F32DB9
:10113000FF773F2E16C0280122E0420E511CF80115
:10114000A080B18036FE03C0692D70E002C06FEF51
:101150007FEFC5010E94CE094C01F32DF0683F2EB0
:10116000820133FC1BC0822D90E088169906B0F4F2
:10117000B60180E290E00E94E4092A94F4CFF501E0
:1011800037FC859137FE81915F01B60190E00E94A6
:10119000E40921102A9421E0821A91088114910413
:1011A00071F7E8C0843611F0893641F5F80137FE51
:1011B00007C060817181828193810C5F1F4F08C0DD
:1011C00060817181072E000C880B990B0E5F1F4FF9
:1011D000F32DFF763F2E97FF09C09095809570956F
:1011E00061957F4F8F4F9F4FF0683F2E2AE030E090
:1011F000A3010E94200A882E861845C0853731F445
:10120000232D2F7EB22E2AE030E025C0932D997F2A
:10121000B92E8F36C1F018F4883579F0B5C0803713
:1012200019F0883721F0B0C0E92FE061BE2EB4FE7E
:101230000DC0FB2DF460BF2E09C034FE0AC0292F5B
:101240002660B22E06C028E030E005C020E130E084
:1012500002C020E132E0F801B7FE07C06081718171
:10126000828193810C5F1F4F06C06081718180E095
:1012700090E00E5F1F4FA3010E94200A882E86185F
:10128000FB2DFF773F2E36FE0DC0232D2E7FA22E85
:10129000891458F434FE0BC032FC09C0832D8E7EB5
:1012A000A82E05C0B82CA32C03C0B82C01C0B92CA3
:1012B000A4FE0FC0FE01E80DF11D8081803321F4F2
:1012C0009A2D997EA92E09C0A2FE06C0B394B394AC
:1012D00004C08A2D867809F0B394A3FC11C0A0FE47
:1012E00006C0B21488F4280C922C9B180EC0B214BD
:1012F00060F4B60180E290E00E94E409B394F7CF75
:10130000B21418F42B1802C0982C212CA4FE10C083
:10131000B60180E390E00E94E409A2FE17C0A1FCA0
:1013200003C088E790E002C088E590E0B6010CC0F9
:101330008A2D867859F0A1FE02C08BE201C080E2BE
:10134000A7FC8DE2B60190E00E94E409891438F40C
:10135000B60180E390E00E94E4099A94F7CF8A9462
:10136000F301E80DF11D8081B60190E00E94E409CF
:101370008110F5CF222009F442CEB60180E290E040
:101380000E94E4092A94F6CFF6018681978102C073
:101390008FEF9FEF2B96E2E10C949A0AFC010590E7
:1013A000615070400110D8F7809590958E0F9F1F67
:1013B0000895FC016150704001900110D8F78095AC
:1013C00090958E0F9F1F08950F931F93CF93DF93D8
:1013D000FB01238121FD03C08FEF9FEF2CC022FF73
:1013E00016C046815781248135814217530744F442
:1013F000A081B1819D012F5F3F4F318320838C936A
:10140000268137812F5F3F4F3783268314C08B019E
:10141000EC01FB010084F185E02D0995892BE1F6B3
:10142000D80116968D919C911797019617969C93CB
:101430008E931697CE01DF91CF911F910F91089552
:10144000FA01AA27283051F1203181F1E8946F93F5
:101450006E7F6E5F7F4F8F4F9F4FAF4FB1E03ED09B
:10146000B4E03CD0670F781F891F9A1FA11D680F39
:10147000791F8A1F911DA11D6A0F711D811D911D6C
:10148000A11D20D009F468943F912AE0269F1124E1
:101490003019305D3193DEF6CF010895462F477045
:1014A000405D4193B3E00FD0C9F7F6CF462F4F70A0
:1014B000405D4A3318F0495D31FD4052419302D0FE
:1014C000A9F7EACFB4E0A6959795879577956795A4
:1014D000BA95C9F700976105710508959B01AC01A4
:1014E0000A2E06945795479537952795BA95C9F7CB
:1014F000620F731F841F951FA01D08952F923F92A6
:101500004F925F926F927F928F929F92AF92BF9213
:10151000CF92DF92EF92FF920F931F93CF93DF93BF
:10152000CDB7DEB7CA1BDB0B0FB6F894DEBF0FBE1C
:10153000CDBF09942A88398848885F846E847D8469
:101540008C849B84AA84B984C884DF80EE80FD806B
:101550000C811B81AA81B981CE0FD11D0FB6F894E1
:0E156000DEBF0FBECDBFED010895F894FFCFA2
:10156E00014000F801010000000000000000000032
:10157E000000000000001464FA646464646464642F
:10158E0064646464646464646464001D1313061705
:10159E0000062500052B00020000000000000000E0
:1015AE00000000000000000000000000000000002D
:1015BE00000000000000000000000000000000001D
:1015CE00000000000000000000000000000000000D
:1015DE0000000000000000000000000000000000FD
:1015EE0000000000000000000000000000000000ED
:1015FE0000000000000000000000000000000000DD
:10160E0000000000000000000000000000000000CC
:10161E00000000000000000052554E0A0D0025305B
:10162E0032643A253032643A253032643B206261AE
:10163E00743A25756D563B206C3D25753B20696EC1
:0C164E0069743A2025303258200D0A0043
:00000001FF
