:100000000C945A000C9451050C9460050C947700E4
:100010000C9477000C9477000C9477000C94770084
:100020000C9477000C9477000C9477000C94770074
:100030000C9477000C9477000C9477000C94770064
:100040000C9477000C9477000C94B5040C94770012
:100050000C94EC040C9479000C9477000C947700C9
:100060000C9477000C9477000C9477000C94770034
:100070000C9477000C9477000C9477000C94770024
:100080000C9477000C9477000C9477000C94770014
:100090000C9477000C9477000C9477000C94770004
:1000A0000C9478030C9477000C9477000C947700F0
:1000B0000C94770011241FBECFEFD8E0DEBFCDBF78
:1000C00012E0A0E0B1E0E6EAF5E102C005900D9291
:1000D000AE31B107D9F722E0AEE1B2E001C01D9226
:1000E000AB3BB207E1F70E946F050C94D10A0C9468
:1000F00000001F920F920FB60F9211248F9381E090
:10010000809300018F910F900FBE0F901F90189554
:10011000ECE7F0E08081806C8083EAE7F0E08081AA
:100120008F6880830895ECE7F0E09081907F908362
:100130009081892B80830895EAE7F0E080818068D0
:10014000808310920001808180648083809100010F
:100150008823E1F32091780080917900EAE7F0E0CC
:1001600090819F77908390E0982F8827822B089525
:100170000E9493000E949C00BC0180E090E00E94DD
:10018000B0062DEC3EE148E95FE30E9416070E94AD
:100190008106CB010895662399F0DC01ED91FC9175
:1001A000119721E030E0A90112960C9002C0440F93
:1001B000551F0A94E2F7CA019081892B8083089524
:1001C000DC01ED91FC91119721E030E0A90112963C
:1001D0000C9002C0440F551F0A94E2F7CA018095A3
:1001E0009081892380830895FC01308121816130D1
:1001F00099F018F06230F1F0089581E090E002800B
:1002000002C0880F991F0A94E2F7E32FF22F80951E
:10021000929189238083089581E090E0028002C05A
:10022000880F991F0A94E2F7E32FF22F9291892BFE
:100230008083089581E090E0AC01028002C0440F09
:10024000551F0A94E2F7A32FB22F40952E91422317
:100250004C93A081B181028002C0880F991F0A943B
:10026000E2F780959C9189238C93089580911E02DA
:10027000806180931E0280911F02816180931F0222
:1002800022E030E041E051E06BE082E30E940404B0
:1002900021E030E04FE152E06DE082E30E9404048F
:1002A00021E030E04EE152E06FE082E30E9404047E
:1002B0000895982F92959F70990F292F220F220F42
:1002C000920F8F70890F08950F931F93CF93DF9331
:1002D000CDB7DEB727970FB6F894DEBF0FBECDBF00
:1002E0008C0127E030E0AE014F5F5F4F60E082E3BA
:1002F0000E94890389810E945901F80180838A81C3
:100300000E945901F80181838B810E945901F801F3
:1003100082838C8187838D810E945901F8018383B8
:100320008E810E945901F80184838F810E945901B6
:1003300090E0F8019683858327960FB6F894DEBF88
:100340000FBECDBFDF91CF911F910F9108959DEC0E
:10035000899F912D1124969596959695392F330F57
:10036000232F220F220F230F821B20E1929F800D4B
:10037000112408950F931F93CF93DF93CDB7DEB76A
:1003800027970FB6F894DEBF0FBECDBF8C01FC01DE
:1003900080810E94A7018983F80181810E94A701C1
:1003A0008A83F80182810E94A7018B83F8018781EB
:1003B0008C8383810E94A7018D83F80184810E9430
:1003C000A7018E83F80185810E94A7018F8327E012
:1003D00030E0AE014F5F5F4F60E082E30E940404B3
:1003E00027960FB6F894DEBF0FBECDBFDF91CF9139
:1003F0001F910F9108950F931F93CF93DF931F9237
:10040000CDB7DEB7182F198221E030E0AE014F5F83
:100410005F4F60E00E94040421E030E0AE014F5FD6
:100420005F4F61E0812F0E94040422E030E040E24F
:1004300052E062EA812F0E945104198221E030E0EB
:10044000AE014F5F5F4F62E1812F0E9404048FEF86
:10045000898321E030E0AE014F5F5F4F63E1812F80
:100460000E9404040AEA098321E030E0AE014F5FF4
:100470005F4F64E1812F0E940404098321E030E092
:10048000AE014F5F5F4F65E1812F0E940404098335
:1004900021E030E0AE014F5F5F4F66E1812F0E94A7
:1004A0000404098321E030E0AE014F5F5F4F67E154
:1004B000812F0E94040481E00F90DF91CF911F9162
:1004C0000F910895242F30E0AB0162EA0E9451049D
:1004D00008950F931F93CF93DF938130A0F0833063
:1004E00050F0853080F4843091F08230A1F4C3E084
:1004F000D1E000E01BC0843091F08230A1F4C3E071
:10050000D1E001E013C0C6E2D1E000E00FC0C3E0DB
:10051000D1E000E00BC0C6E2D1E000E007C0C3E0DC
:10052000D1E001E003C0C6E2D1E001E0002319F10F
:1005300025C0822F90E0DC01A05EBD4F810F911D90
:10054000FE01E80FF91F80818C932F5F01C020E02E
:10055000203178F340E160E272E084E60E946202BA
:100560002FE788E391E0215080409040E1F700C000
:1005700000001F5F01C011E0143148F3013041F564
:1005800024C09150A92FB0E0A05EBD4FE12FF0E054
:10059000E80FF11DEC0FFD1F20812C938F5F02C02F
:1005A00090E180E0803168F340E160E272E084E64F
:1005B0000E9462022FE788E391E021508040904042
:1005C000E1F700C000001F5F01C011E0143140F3EB
:1005D000DF91CF911F910F91089585EA8093DC0000
:1005E00080E090E005C00196803426E0920730F468
:1005F00020914B012830B9F780E0089581E00895FB
:1006000085E98093DC00089585EA8093DC0080E032
:1006100090E005C00196803426E0920730F42091E6
:100620004B012031B9F780E0089581E0089585E815
:100630008093DC0080E090E005C00196803426E0E5
:10064000920730F420914B012831B9F780E00895EA
:1006500081E0089585E88093DC0080E090E005C0AB
:100660000196803426E0920730F420914B01283225
:10067000B9F780E0089581E0089585E88093DC0073
:1006800080E090E005C00196803426E0920730F4C7
:1006900020914B012034B9F780E0089581E008955E
:1006A000882389F085EC8093DC0080E090E005C031
:1006B0000196803426E09207B8F420914B01203552
:1006C000B9F780E0089585E88093DC0080E090E051
:1006D00005C00196803426E0920740F420914B013A
:1006E0002835B9F780E0089581E0089581E0089504
:1006F0001F920F920FB60F9211248F938091D90001
:10070000887F80934B018F910F900FBE0F901F90A9
:100710001895CF92DF92EF92FF920F931F93CF9392
:10072000D82EC62E7A0189010E94ED02C82F882397
:1007300021F00E9400038C2F5FC08D2D880F8093C5
:10074000DB000E941703C82F882321F00E940003BA
:100750008C2F52C0C092DB000E942A03C82F88232E
:1007600021F00E9400038C2F47C00E940403C82F71
:10077000882321F00E9400038C2F3EC08D2D90E035
:10078000880F991F81608093DB000E943D03C82F72
:100790008823C1F00E9400038C2F2EC081E00E94AC
:1007A0005003C82F882321F00E9400038C2F24C0FF
:1007B000F701EC0DFD1D8091DB0080838FEFC81ADF
:1007C000D80A02C0C12CD12CC8010197C816D9067D
:1007D00028F380E00E945003C82F882321F00E9454
:1007E00000038C2F09C0F701EC0DFD1D8091DB008B
:1007F00080830E9400038C2FCF911F910F91FF9057
:10080000EF90DF90CF900895CF92DF92EF92FF921A
:100810000F931F93CF93182F062F6A0179010E941F
:10082000ED02C82F882321F00E9400038C2F31C0D5
:10083000110F1093DB000E941703C82F882321F0AB
:100840000E9400038C2F25C00093DB000E942A0326
:10085000C82F8823B1F00E9400038C2F1AC0F60124
:10086000E00FF11F80818093DB000E942A03C82FD4
:10087000882321F00E9400038C2F0BC00F5F1F4FB5
:1008800002C000E010E00E151F0548F30E940003AF
:100890008C2FCF911F910F91FF90EF90DF90CF9011
:1008A0000895CF92DF92EF92FF920F931F93CF9311
:1008B000182F062F6A0179010E94ED02C82F8823A4
:1008C00021F00E9400038C2F31C0110F1093DB0028
:1008D0000E941703C82F882321F00E9400038C2F49
:1008E00025C00093DB000E942A03C82F8823B1F0A3
:1008F0000E9400038C2F1AC0F601E00FF11F8081C7
:100900008093DB000E942A03C82F882321F00E94D5
:1009100000038C2F0BC00F5F1F4F02C000E010E0E0
:100920000E151F0548F30E9400038C2FCF911F91D5
:100930000F91FF90EF90DF90CF9008959B01AC0155
:1009400060E072E18AE790E00E94AB07DA01C9013A
:100950004097A109B109B695A7959795879580937A
:10096000D80085E08093DC0008951F920F920FB6A7
:100970000F9211248F939F93EF93FF93E091B00216
:10098000F091B1028091C600E05DFD4F8083E0915F
:10099000B002F091B102E05DFD4F80818D3051F4E5
:1009A00081E080934C01E091B002F091B102EF5CE4
:1009B000FD4F10828091B0029091B1020196909308
:1009C000B1028093B002FF91EF919F918F910F90B0
:1009D0000FBE0F901F9018951F920F920FB60F9297
:1009E00011248F9381E080934D018F910F900FBE62
:1009F0000F901F901895442339F0E0ECF0E020812F
:100A000022602083A8E001C0A0E1B0E09B01AC011E
:100A10000E94CD079B01AC0160E072E18AE790E0A3
:100A20000E94AB07BA01A90141505109610971093E
:100A3000DB01CA0188279F70AA27BB27892F9A2F1D
:100A4000AB2FBB278093C5004093C400E1ECF0E0DE
:100A50008081886D808386E88093C200089590919C
:100A60004D019923E1F310924D018093C600089542
:100A70000F931F93CF93DF938C01C0E0D0E0F80178
:100A8000EC0FFD1F80810E942F052196F801EC0FCD
:100A9000FD1F80818111F3CFDF91CF911F910F91C5
:100AA00008951F920F920FB60F9211248F9381E039
:100AB0008093BA028F910F900FBE0F901F901895E0
:100AC0001F920F920FB60F9211248F9381E08093A3
:100AD000B5028F910F900FBE0F901F901895CF9376
:100AE000DF93CDB7DEB7C058D1090FB6F894DEBF9B
:100AF0000FBECDBF80916301909164019A83898379
:100B0000FE0133968EE7DF011D928A95E9F741E0F9
:100B100060E875E280E090E00E94FB0460E87AE122
:100B200086E090E00E949E04E9E6F0E080818E601D
:100B3000808383E08DBB61E087E591E00E94F40053
:100B400061E087E591E00E94CB0061E08AE591E0F9
:100B50000E94F40060E08AE591E00E94CB0060E032
:100B600080E691E00E94F40060E08DE591E00E9453
:100B7000F40078948FE491E00E94BA0160E070E0A4
:100B80008FE491E00E9436010E94880083EE91E09C
:100B90000E94380583B7816083BF83B7817F8460FB
:100BA00083BF8091B502813049F48091B2028111F6
:100BB00003C081E08093B3021092B5028091B3022A
:100BC000882309F45AC08091B402811156C089EE7D
:100BD00091E00E9438058091B302813019F0833092
:100BE000E1F036C08091B202811147C081E080936C
:100BF000B20285E08093B40261E08AE591E00E9450
:100C0000CB0080914E010E94FB018091B3020E94B3
:100C1000690282E08093B30230C08091B2028111F8
:100C20002CC081E08093B20285E08093B40261E041
:100C30008AE591E00E94CB0080914E010E94FB0169
:100C40008091B3020E94690284E08093B30215C0D0
:100C500089EE91E00E9438058091B202882369F004
:100C60001092B2028091B3020E94690260E08AE5AC
:100C700091E00E94CB001092B3028091BA028823C7
:100C8000F1F18FE491E00E94640184E00E94B800D9
:100C90009093B9028093B80285E00E94B8009093C7
:100CA000B7028093B6028091B4021F928F93809115
:100CB000B3021F928F938091B2021F928F9380EFA5
:100CC00091E09F938F938E010F5F1F4F1F930F93A0
:100CD0000E94E707C8010E9438051092BA0280916D
:100CE000B4020FB6F894DEBF0FBECDBF882339F033
:100CF00081508093B40283E192E00E943805889588
:100D000050CF0E94F50688F09F5798F0B92F992789
:100D1000B751B0F0E1F0660F771F881F991F1AF0E6
:100D2000BA95C9F714C0B13091F00E940F07B1E035
:100D300008950C940F07672F782F8827B85F39F034
:100D4000B93FCCF3869577956795B395D9F73EF47F
:100D500090958095709561957F4F8F4F9F4F089527
:100D6000E89409C097FB3EF4909580957095619545
:100D70007F4F8F4F9F4F9923A9F0F92F96E9BB27FB
:100D80009395F695879577956795B795F111F8CF77
:100D9000FAF4BB0F11F460FF1BC06F5F7F4F8F4FE2
:100DA0009F4F16C0882311F096E911C0772321F0D8
:100DB0009EE8872F762F05C0662371F096E8862F70
:100DC00070E060E02AF09A95660F771F881FDAF7C7
:100DD000880F9695879597F9089557FD9058440F79
:100DE000551F59F05F3F71F04795880F97FB991F8A
:100DF00061F09F3F79F08795089512161306140647
:100E0000551FF2CF4695F1DF08C0161617061806D3
:100E1000991FF1CF86957105610508940895E894AE
:100E2000BB2766277727CB0197F908950E942907EA
:100E30000C949A070E948C0738F00E94930720F0C8
:100E4000952311F00C9483070C94890711240C94BA
:100E500010070E94ED0670F3959FC1F3950F50E0C7
:100E6000551F629FF001729FBB27F00DB11D639F5C
:100E7000AA27F00DB11DAA1F649F6627B00DA11D02
:100E8000661F829F2227B00DA11D621F739FB00DA8
:100E9000A11D621F839FA00D611D221F749F332718
:100EA000A00D611D231F849F600D211D822F762FB1
:100EB0006A2F11249F5750409AF0F1F088234AF08E
:100EC000EE0FFF1FBB1F661F771F881F91505040FA
:100ED000A9F79E3F510580F00C9483070C941007EE
:100EE0005F3FE4F3983ED4F3869577956795B79581
:100EF000F795E7959F5FC1F7FE2B880F911D96959B
:100F0000879597F9089597F99F6780E870E060E00A
:100F100008959FEF80EC089500240A941616170692
:100F200018060906089500240A94121613061406DA
:100F300005060895092E0394000C11F4882352F03D
:100F4000BB0F40F4BF2B11F460FF04C06F5F7F4FF5
:100F50008F4F9F4F0895A1E21A2EAA1BBB1BFD01C4
:100F60000DC0AA1FBB1FEE1FFF1FA217B307E40788
:100F7000F50720F0A21BB30BE40BF50B661F771FE0
:100F8000881F991F1A9469F76095709580959095C0
:100F90009B01AC01BD01CF0108950E94D807A59F18
:100FA000900DB49F900DA49F800D911D1124089564
:100FB000A29FB001B39FC001A39F700D811D11249A
:100FC000911DB29F700D811D1124911D0895AEE0F9
:100FD000B0E0EDEEF7E00C94A80A0D891E8986E0DA
:100FE0008C831A8309838FEF9FE79E838D83AE01E5
:100FF000475E5F4F6F89788DCE0101960E94090888
:10100000EF81F885E00FF11F10822E96E4E00C943A
:10101000C40AABE0B0E0EFE0F8E00C949A0A6C018F
:101020007B018A01FC0117821682838181FFCCC17A
:10103000CE0101963C01F6019381F70193FD859164
:1010400093FF81917F01882309F4BAC1853239F475
:1010500093FD859193FF81917F01853229F4B6013B
:1010600090E00E94000AE7CF912C212C312CFFE167
:10107000F315D8F08B3279F038F4803279F083327E
:10108000A1F4232D20611DC08D3261F0803369F4FD
:10109000232D216016C0832D8260382EE32DE4605D
:1010A0003E2E2AC0F32DF8601DC037FC2DC020ED68
:1010B000280F2A3040F08E32B9F436FC81C1232D3E
:1010C0002064322E19C036FE06C08AE0989E200D9C
:1010D0001124922E11C0EAE02E9E200D1124222E02
:1010E000F32DF0623F2E08C08C3621F4832D8068EA
:1010F000382E02C0883641F4F70193FD859193FFA5
:1011000081917F018111B3CF982F9F7D95549330AA
:1011100028F40C5F1F4F9FE399830DC0833631F095
:10112000833771F0833509F059C021C0F8018081FF
:1011300089830E5F1F4F88248394912C530113C021
:101140002801F2E04F0E511CF801A080B18036FE5C
:1011500003C0692D70E002C06FEF7FEFC5010E94F0
:10116000F5094C018201F32DFF773F2E16C02801AF
:1011700022E0420E511CF801A080B18036FE03C06F
:10118000692D70E002C06FEF7FEFC5010E94EA0990
:101190004C01F32DF0683F2E820133FC1BC0822DE1
:1011A00090E088169906B0F4B60180E290E00E94C3
:1011B000000A2A94F4CFF50137FC859137FE81911E
:1011C0005F01B60190E00E94000A21102A9421E0FC
:1011D000821A91088114910471F7E8C0843611F0E5
:1011E000893641F5F80137FE07C06081718182813F
:1011F00093810C5F1F4F08C060817181072E000C26
:10120000880B990B0E5F1F4FF32DFF763F2E97FF34
:1012100009C090958095709561957F4F8F4F9F4F36
:10122000F0683F2E2AE030E0A3010E943C0A882E9D
:10123000861845C0853731F4232D2F7EB22E2AE043
:1012400030E025C0932D997FB92E8F36C1F018F468
:10125000883579F0B5C0803719F0883721F0B0C0F3
:10126000E92FE061BE2EB4FE0DC0FB2DF460BF2E51
:1012700009C034FE0AC0292F2660B22E06C028E01D
:1012800030E005C020E130E002C020E132E0F801AA
:10129000B7FE07C060817181828193810C5F1F4F0F
:1012A00006C06081718180E090E00E5F1F4FA30156
:1012B0000E943C0A882E8618FB2DFF773F2E36FEB3
:1012C0000DC0232D2E7FA22E891458F434FE0BC09E
:1012D00032FC09C0832D8E7EA82E05C0B82CA32C0D
:1012E00003C0B82C01C0B92CA4FE0FC0FE01E80D4C
:1012F000F11D8081803321F49A2D997EA92E09C099
:10130000A2FE06C0B394B39404C08A2D867809F077
:10131000B394A3FC11C0A0FE06C0B21488F4280C3C
:10132000922C9B180EC0B21460F4B60180E290E0DB
:101330000E94000AB394F7CFB21418F42B1802C01D
:10134000982C212CA4FE10C0B60180E390E00E94EE
:10135000000AA2FE17C0A1FC03C088E790E002C00B
:1013600088E590E0B6010CC08A2D867859F0A1FE80
:1013700002C08BE201C080E2A7FC8DE2B60190E0E2
:101380000E94000A891438F4B60180E390E00E94BC
:10139000000A9A94F7CF8A94F301E80DF11D808139
:1013A000B60190E00E94000A8110F5CF222009F4D6
:1013B00042CEB60180E290E00E94000A2A94F6CF65
:1013C000F6018681978102C08FEF9FEF2B96E2E1B5
:1013D0000C94B60AFC010590615070400110D8F7DA
:1013E000809590958E0F9F1F0895FC01615070406D
:1013F00001900110D8F7809590958E0F9F1F08954A
:101400000F931F93CF93DF93FB01238121FD03C033
:101410008FEF9FEF2CC022FF16C046815781248199
:1014200035814217530744F4A081B1819D012F5F9C
:101430003F4F318320838C93268137812F5F3F4F2D
:101440003783268314C08B01EC01FB010084F185F6
:10145000E02D0995892BE1F6D80116968D919C9186
:101460001797019617969C938E931697CE01DF914E
:10147000CF911F910F910895FA01AA27283051F1B9
:10148000203181F1E8946F936E7F6E5F7F4F8F4FB5
:101490009F4FAF4FB1E03ED0B4E03CD0670F781F14
:1014A000891F9A1FA11D680F791F8A1F911DA11DF9
:1014B0006A0F711D811D911DA11D20D009F4689432
:1014C0003F912AE0269F11243019305D3193DEF6DA
:1014D000CF010895462F4770405D4193B3E00FD090
:1014E000C9F7F6CF462F4F70405D4A3318F0495D7B
:1014F00031FD4052419302D0A9F7EACFB4E0A6955E
:101500009795879577956795BA95C9F7009761057F
:10151000710508959B01AC010A2E069457954795D5
:1015200037952795BA95C9F7620F731F841F951FCA
:10153000A01D08952F923F924F925F926F927F92DB
:101540008F929F92AF92BF92CF92DF92EF92FF92D3
:101550000F931F93CF93DF93CDB7DEB7CA1BDB0B7F
:101560000FB6F894DEBF0FBECDBF09942A88398824
:1015700048885F846E847D848C849B84AA84B9842B
:10158000C884DF80EE80FD800C811B81AA81B98137
:10159000CE0FD11D0FB6F894DEBF0FBECDBFED014B
:0615A0000895F894FFCF4E
:1015A60001400064646464646464646464646464E0
:1015B600646464FA64140000000000000000000087
:1015C6000000000000000000000000000000000015
:1015D6000000000000001464FA64646464646464D7
:1015E6006464646464646464646400F801016400AF
:1015F6001D1313061700062500052B00042B0003F8
:101606002B000200000000000000000000000000A7
:1016160000000000000000000000000000000000C4
:1016260000000000000000000000000000000000B4
:1016360000000000000000000000000000000000A4
:101646000000000000000000000000000000000094
:101656000000000000000000000000000000000084
:101666000000000000000000000000000000000074
:101676000000000000000000000000000000000064
:1016860000000052554E0A0D00434153450A0D0015
:10169600413A20253032643B205265713A2025308C
:1016A60032643B2054696D65723A20253032643BC2
:0E16B6000A0D00636F756E74646F776E00002E
:00000001FF
