:100000000C945A000C9451050C9460050C947700E4
:100010000C9477000C946F050C9477000C94770087
:100020000C9477000C9477000C9477000C94770074
:100030000C9477000C9477000C9477000C94770064
:100040000C9477000C9477000C94B5040C94770012
:100050000C94EC040C9479000C9477000C947700C9
:100060000C9477000C9477000C9477000C94770034
:100070000C9477000C9477000C9477000C94770024
:100080000C9477000C9477000C9477000C94770014
:100090000C9477000C9477000C9477000C94770004
:1000A0000C9478030C9477000C9477000C947700F0
:1000B0000C94770011241FBECFEFD8E0DEBFCDBF78
:1000C00012E0A0E0B1E0ECEDF6E102C005900D9287
:1000D000A034B107D9F722E0A0E4B2E001C01D923C
:1000E000AE3DB207E1F70E94A5050C946C0B0C9491
:1000F00000001F920F920FB60F9211248F9381E090
:10010000809300018F910F900FBE0F901F90189554
:10011000ECE7F0E08081806C8083EAE7F0E08081AA
:100120008F6880830895ECE7F0E09081907F908362
:100130009081892B80830895EAE7F0E080818068D0
:10014000808310920001808180648083809100010F
:100150008823E1F32091780080917900EAE7F0E0CC
:1001600090819F77908390E0982F8827822B089525
:100170000E9493000E949C00BC0180E090E00E94DD
:100180004B072DEC3EE148E95FE30E94B1070E9476
:100190001C07CB010895662399F0DC01ED91FC91D9
:1001A000119721E030E0A90112960C9002C0440F93
:1001B000551F0A94E2F7CA019081892B8083089524
:1001C000DC01ED91FC91119721E030E0A90112963C
:1001D0000C9002C0440F551F0A94E2F7CA018095A3
:1001E0009081892380830895FC01308121816130D1
:1001F00099F018F06230F1F0089581E090E002800B
:1002000002C0880F991F0A94E2F7E32FF22F80951E
:10021000929189238083089581E090E0028002C05A
:10022000880F991F0A94E2F7E32FF22F9291892BFE
:100230008083089581E090E0AC01028002C0440F09
:10024000551F0A94E2F7A32FB22F40952E91422317
:100250004C93A081B181028002C0880F991F0A943B
:10026000E2F780959C9189238C93089580914002B8
:1002700080618093400280914102816180934102BC
:1002800022E030E041E051E06BE082E30E940404B0
:1002900021E030E041E452E06DE082E30E9404049A
:1002A00021E030E040E452E06FE082E30E94040489
:1002B0000895982F92959F70990F292F220F220F42
:1002C000920F8F70890F08950F931F93CF93DF9331
:1002D000CDB7DEB727970FB6F894DEBF0FBECDBF00
:1002E0008C0127E030E0AE014F5F5F4F60E082E3BA
:1002F0000E94890389810E945901F80180838A81C3
:100300000E945901F80181838B810E945901F801F3
:1003100082838C8187838D810E945901F8018383B8
:100320008E810E945901F80184838F810E945901B6
:1003300090E0F8019683858327960FB6F894DEBF88
:100340000FBECDBFDF91CF911F910F9108959DEC0E
:10035000899F912D1124969596959695392F330F57
:10036000232F220F220F230F821B20E1929F800D4B
:10037000112408950F931F93CF93DF93CDB7DEB76A
:1003800027970FB6F894DEBF0FBECDBF8C01FC01DE
:1003900080810E94A7018983F80181810E94A701C1
:1003A0008A83F80182810E94A7018B83F8018781EB
:1003B0008C8383810E94A7018D83F80184810E9430
:1003C000A7018E83F80185810E94A7018F8327E012
:1003D00030E0AE014F5F5F4F60E082E30E940404B3
:1003E00027960FB6F894DEBF0FBECDBFDF91CF9139
:1003F0001F910F9108950F931F93CF93DF931F9237
:10040000CDB7DEB7182F198221E030E0AE014F5F83
:100410005F4F60E00E94040421E030E0AE014F5FD6
:100420005F4F61E0812F0E94040422E030E042E44B
:1004300052E062EA812F0E945104198221E030E0EB
:10044000AE014F5F5F4F62E1812F0E9404048FEF86
:10045000898321E030E0AE014F5F5F4F63E1812F80
:100460000E9404040AEA098321E030E0AE014F5FF4
:100470005F4F64E1812F0E940404098321E030E092
:10048000AE014F5F5F4F65E1812F0E940404098335
:1004900021E030E0AE014F5F5F4F66E1812F0E94A7
:1004A0000404098321E030E0AE014F5F5F4F67E154
:1004B000812F0E94040481E00F90DF91CF911F9162
:1004C0000F910895242F30E0AB0162EA0E9451049D
:1004D00008950F931F93CF93DF938130A0F0833063
:1004E00050F0853080F4843091F08230A1F4C3E084
:1004F000D1E000E01BC0843091F08230A1F4C3E071
:10050000D1E001E013C0C6E2D1E000E00FC0C3E0DB
:10051000D1E000E00BC0C6E2D1E000E007C0C3E0DC
:10052000D1E001E003C0C6E2D1E001E0002319F10F
:1005300025C0822F90E0DC01AE5BBD4F810F911D85
:10054000FE01E80FF91F80818C932F5F01C020E02E
:10055000203178F340E162E472E084E60E946202B6
:100560002FE788E391E0215080409040E1F700C000
:1005700000001F5F01C011E0143148F3013041F564
:1005800024C09150A92FB0E0AE5BBD4FE12FF0E049
:10059000E80FF11DEC0FFD1F20812C938F5F02C02F
:1005A00090E180E0803168F340E162E472E084E64B
:1005B0000E9462022FE788E391E021508040904042
:1005C000E1F700C000001F5F01C011E0143140F3EB
:1005D000DF91CF911F910F91089585EA8093DC0000
:1005E00080E090E005C00196803426E0920730F468
:1005F00020914B012830B9F780E0089581E00895FB
:1006000085E98093DC00089585EA8093DC0080E032
:1006100090E005C00196803426E0920730F42091E6
:100620004B012031B9F780E0089581E0089585E815
:100630008093DC0080E090E005C00196803426E0E5
:10064000920730F420914B012831B9F780E00895EA
:1006500081E0089585E88093DC0080E090E005C0AB
:100660000196803426E0920730F420914B01283225
:10067000B9F780E0089581E0089585E88093DC0073
:1006800080E090E005C00196803426E0920730F4C7
:1006900020914B012034B9F780E0089581E008955E
:1006A000882389F085EC8093DC0080E090E005C031
:1006B0000196803426E09207B8F420914B01203552
:1006C000B9F780E0089585E88093DC0080E090E051
:1006D00005C00196803426E0920740F420914B013A
:1006E0002835B9F780E0089581E0089581E0089504
:1006F0001F920F920FB60F9211248F938091D90001
:10070000887F80934B018F910F900FBE0F901F90A9
:100710001895CF92DF92EF92FF920F931F93CF9392
:10072000D82EC62E7A0189010E94ED02C82F882397
:1007300021F00E9400038C2F5FC08D2D880F8093C5
:10074000DB000E941703C82F882321F00E940003BA
:100750008C2F52C0C092DB000E942A03C82F88232E
:1007600021F00E9400038C2F47C00E940403C82F71
:10077000882321F00E9400038C2F3EC08D2D90E035
:10078000880F991F81608093DB000E943D03C82F72
:100790008823C1F00E9400038C2F2EC081E00E94AC
:1007A0005003C82F882321F00E9400038C2F24C0FF
:1007B000F701EC0DFD1D8091DB0080838FEFC81ADF
:1007C000D80A02C0C12CD12CC8010197C816D9067D
:1007D00028F380E00E945003C82F882321F00E9454
:1007E00000038C2F09C0F701EC0DFD1D8091DB008B
:1007F00080830E9400038C2FCF911F910F91FF9057
:10080000EF90DF90CF900895CF92DF92EF92FF921A
:100810000F931F93CF93182F062F6A0179010E941F
:10082000ED02C82F882321F00E9400038C2F31C0D5
:10083000110F1093DB000E941703C82F882321F0AB
:100840000E9400038C2F25C00093DB000E942A0326
:10085000C82F8823B1F00E9400038C2F1AC0F60124
:10086000E00FF11F80818093DB000E942A03C82FD4
:10087000882321F00E9400038C2F0BC00F5F1F4FB5
:1008800002C000E010E00E151F0548F30E940003AF
:100890008C2FCF911F910F91FF90EF90DF90CF9011
:1008A0000895CF92DF92EF92FF920F931F93CF9311
:1008B000182F062F6A0179010E94ED02C82F8823A4
:1008C00021F00E9400038C2F31C0110F1093DB0028
:1008D0000E941703C82F882321F00E9400038C2F49
:1008E00025C00093DB000E942A03C82F8823B1F0A3
:1008F0000E9400038C2F1AC0F601E00FF11F8081C7
:100900008093DB000E942A03C82F882321F00E94D5
:1009100000038C2F0BC00F5F1F4F02C000E010E0E0
:100920000E151F0548F30E9400038C2FCF911F91D5
:100930000F91FF90EF90DF90CF9008959B01AC0155
:1009400060E072E18AE790E00E944608DA01C9019E
:100950004097A109B109B695A7959795879580937A
:10096000D80085E08093DC0008951F920F920FB6A7
:100970000F9211248F939F93EF93FF93E091D202F4
:10098000F091D3028091C600EE5AFD4F8083E09132
:10099000D202F091D302EE5AFD4F80818D3051F496
:1009A00081E080934C01E091D202F091D302ED5AA4
:1009B000FD4F10828091D2029091D30201969093C4
:1009C000D3028093D202FF91EF919F918F910F906C
:1009D0000FBE0F901F9018951F920F920FB60F9297
:1009E00011248F9381E080934D018F910F900FBE62
:1009F0000F901F901895442339F0E0ECF0E020812F
:100A000022602083A8E001C0A0E1B0E09B01AC011E
:100A10000E9468089B01AC0160E072E18AE790E007
:100A20000E944608BA01A9014150510961097109A2
:100A3000DB01CA0188279F70AA27BB27892F9A2F1D
:100A4000AB2FBB278093C5004093C400E1ECF0E0DE
:100A50008081886D808386E88093C200089590919C
:100A60004D019923E1F310924D018093C600089542
:100A70000F931F93CF93DF938C01C0E0D0E0F80178
:100A8000EC0FFD1F80810E942F052196F801EC0FCD
:100A9000FD1F80818111F3CFDF91CF911F910F91C5
:100AA00008951F920F920FB60F9211248F9381E039
:100AB0008093DD028F910F900FBE0F901F901895BD
:100AC0001F920F920FB60F9211248F9381E08093A3
:100AD000D8028F910F900FBE0F901F9018951F9204
:100AE0000F920FB60F9211242F933F934F938F9332
:100AF0009F93AF93BF93EF93FF93ADE5B1E0ED917B
:100B0000FC9111973297408181E090E09C01129610
:100B10000C9002C0220F331F0A94E2F7842F90E05A
:100B200082239323892B19F081E08093D702FF91D0
:100B3000EF91BF91AF919F918F914F913F912F91E5
:100B40000F900FBE0F901F901895CF93DF93CDB7E6
:100B5000DEB7C058D1090FB6F894DEBF0FBECDBFC7
:100B600080916601909167019A838983FE01339693
:100B70008EE7DF011D928A95E9F741E060E875E2B2
:100B800080E090E00E94FB0460E87AE186E090E07B
:100B90000E949E04E9E6F0E080818E60808383E01D
:100BA0008DBBE8E6F0E0808184608083EDE6F0E0D4
:100BB00080818062808361E087E591E00E94F4009B
:100BC00061E087E591E00E94CB0061E08AE591E079
:100BD0000E94F40060E08AE591E00E94CB0060E0B2
:100BE00083E691E00E94F40060E080E691E00E94DC
:100BF000F40060E08DE591E00E94F40078948FE4C9
:100C000091E00E94BA0160E070E08FE491E00E9400
:100C100036010E94880086EE91E00E94380583B775
:100C2000816083BF83B7817F846083BF8091D80256
:100C3000813081F48091D40281110AC08091D9025F
:100C40009091DA028639910518F481E08093D502FB
:100C50001092D8028091D702813081F48091D40221
:100C600081110AC08091D9029091DA0286399105EA
:100C700018F483E08093D5021092D7028091D502B8
:100C8000882309F45AC08091D602811156C08CEE97
:100C900091E00E9438058091D502813019F08330AF
:100CA000E1F036C08091D402811147C081E0809389
:100CB000D40285E08093D60261E08AE591E00E944B
:100CC000CB0080914E010E94FB018091D5020E94D1
:100CD000690282E08093D50230C08091D4028111F4
:100CE0002CC081E08093D40285E08093D60261E03D
:100CF0008AE591E00E94CB0080914E010E94FB01A9
:100D00008091D5020E94690284E08093D50215C0CB
:100D10008CEE91E00E9438058091D402882369F01E
:100D20001092D4028091D5020E94690260E08AE5A7
:100D300091E00E94CB001092D5028091DD028823C1
:100D400009F478C08FE491E00E94640184E00E947D
:100D5000B8009093DC028093DB0285E00E94B8002B
:100D60008093D9029093DA02EFE4F1E0408131817F
:100D700022819F938F938091DC028F938091DB027D
:100D80008F931F924F931F923F931F922F9383EF46
:100D900091E09F938F938E010F5F1F4F1F930F93CF
:100DA0000E948208C8010E9438051092DD0240911D
:100DB000D6020FB6F894DEBF0FBECDBF4423D1F1EB
:100DC000ADE5B1E0ED91FC9111973297508181E052
:100DD00090E09C0112960C9002C0220F331F0A94DF
:100DE000E2F7852F90E082239323892BB9F4A0E6C4
:100DF000B1E0ED91FC9111973297508181E090E044
:100E00009C0112960C9002C0220F331F0A94E2F745
:100E1000852F90E082239323892B29F081E292E0B1
:100E20000E94380507C041504093D60284E392E007
:100E30000E9438058895FACE0E94900788F09F5747
:100E400098F0B92F9927B751B0F0E1F0660F771FEE
:100E5000881F991F1AF0BA95C9F714C0B13091F0E4
:100E60000E94AA07B1E008950C94AA07672F782F73
:100E70008827B85F39F0B93FCCF3869577956795A9
:100E8000B395D9F73EF490958095709561957F4F15
:100E90008F4F9F4F0895E89409C097FB3EF49095BB
:100EA0008095709561957F4F8F4F9F4F9923A9F043
:100EB000F92F96E9BB279395F695879577956795D2
:100EC000B795F111F8CFFAF4BB0F11F460FF1BC016
:100ED0006F5F7F4F8F4F9F4F16C0882311F096E9A9
:100EE00011C0772321F09EE8872F762F05C0662357
:100EF00071F096E8862F70E060E02AF09A95660F10
:100F0000771F881FDAF7880F9695879597F90895C8
:100F100057FD9058440F551F59F05F3F71F04795AA
:100F2000880F97FB991F61F09F3F79F0879508958F
:100F3000121613061406551FF2CF4695F1DF08C0AE
:100F4000161617061806991FF1CF869571056105CB
:100F500008940895E894BB2766277727CB0197F973
:100F600008950E94C4070C9435080E94270838F0A1
:100F70000E942E0820F0952311F00C941E080C946A
:100F8000240811240C94AB070E94880770F3959FE6
:100F9000C1F3950F50E0551F629FF001729FBB2770
:100FA000F00DB11D639FAA27F00DB11DAA1F649F0C
:100FB0006627B00DA11D661F829F2227B00DA11DBF
:100FC000621F739FB00DA11D621F839FA00D611D45
:100FD000221F749F3327A00D611D231F849F600D66
:100FE000211D822F762F6A2F11249F5750409AF08F
:100FF000F1F088234AF0EE0FFF1FBB1F661F771F1B
:10100000881F91505040A9F79E3F510580F00C94E5
:101010001E080C94AB075F3FE4F3983ED4F386952B
:1010200077956795B795F795E7959F5FC1F7FE2B85
:10103000880F911D9695879597F9089597F99F6761
:1010400080E870E060E008959FEF80EC0895002450
:101050000A941616170618060906089500240A941D
:1010600012161306140605060895092E0394000CA3
:1010700011F4882352F0BB0F40F4BF2B11F460FF32
:1010800004C06F5F7F4F8F4F9F4F0895A1E21A2ECC
:10109000AA1BBB1BFD010DC0AA1FBB1FEE1FFF1F1C
:1010A000A217B307E407F50720F0A21BB30BE40B6C
:1010B000F50B661F771F881F991F1A9469F76095B3
:1010C0007095809590959B01AC01BD01CF0108956D
:1010D0000E947308A59F900DB49F900DA49F800D52
:1010E000911D11240895A29FB001B39FC001A39F39
:1010F000700D811D1124911DB29F700D811D112451
:10110000911D0895AEE0B0E0E8E8F8E00C94430BE0
:101110000D891E8986E08C831A8309838FEF9FE7F0
:101120009E838D83AE01475E5F4F6F89788DCE01C0
:1011300001960E94A408EF81F885E00FF11F10824C
:101140002E96E4E00C945F0BABE0B0E0EAEAF8E046
:101150000C94350B6C017B018A01FC01178216820D
:10116000838181FFCCC1CE0101963C01F6019381C0
:10117000F70193FD859193FF81917F01882309F405
:10118000BAC1853239F493FD859193FF81917F0136
:10119000853229F4B60190E00E949B0AE7CF912C9A
:1011A000212C312CFFE1F315D8F08B3279F038F493
:1011B000803279F08332A1F4232D20611DC08D325D
:1011C00061F0803369F4232D216016C0832D826085
:1011D000382EE32DE4603E2E2AC0F32DF8601DC0AA
:1011E00037FC2DC020ED280F2A3040F08E32B9F4A4
:1011F00036FC81C1232D2064322E19C036FE06C074
:101200008AE0989E200D1124922E11C0EAE02E9EB5
:10121000200D1124222EF32DF0623F2E08C08C36B3
:1012200021F4832D8068382E02C0883641F4F701FE
:1012300093FD859193FF81917F018111B3CF982F09
:101240009F7D9554933028F40C5F1F4F9FE3998343
:101250000DC0833631F0833771F0833509F059C002
:1012600021C0F801808189830E5F1F4F88248394F9
:10127000912C530113C02801F2E04F0E511CF801CC
:10128000A080B18036FE03C0692D70E002C06FEF10
:101290007FEFC5010E94900A4C018201F32DFF7778
:1012A0003F2E16C0280122E0420E511CF801A080FA
:1012B000B18036FE03C0692D70E002C06FEF7FEF92
:1012C000C5010E94850A4C01F32DF0683F2E820172
:1012D00033FC1BC0822D90E088169906B0F4B6014D
:1012E00080E290E00E949B0A2A94F4CFF50137FC3B
:1012F000859137FE81915F01B60190E00E949B0AC3
:1013000021102A9421E0821A91088114910471F726
:10131000E8C0843611F0893641F5F80137FE07C080
:1013200060817181828193810C5F1F4F08C0608151
:101330007181072E000C880B990B0E5F1F4FF32D48
:10134000FF763F2E97FF09C0909580957095619527
:101350007F4F8F4F9F4FF0683F2E2AE030E0A30170
:101360000E94D70A882E861845C0853731F4232D70
:101370002F7EB22E2AE030E025C0932D997FB92E22
:101380008F36C1F018F4883579F0B5C0803719F080
:10139000883721F0B0C0E92FE061BE2EB4FE0DC049
:1013A000FB2DF460BF2E09C034FE0AC0292F266031
:1013B000B22E06C028E030E005C020E130E002C0D7
:1013C00020E132E0F801B7FE07C0608171818281BF
:1013D00093810C5F1F4F06C06081718180E090E0B7
:1013E0000E5F1F4FA3010E94D70A882E8618FB2D7F
:1013F000FF773F2E36FE0DC0232D2E7FA22E89149F
:1014000058F434FE0BC032FC09C0832D8E7EA82E0A
:1014100005C0B82CA32C03C0B82C01C0B92CA4FE65
:101420000FC0FE01E80DF11D8081803321F49A2D5B
:10143000997EA92E09C0A2FE06C0B394B39404C03D
:101440008A2D867809F0B394A3FC11C0A0FE06C0D3
:10145000B21488F4280C922C9B180EC0B21460F4BD
:10146000B60180E290E00E949B0AB394F7CFB214D9
:1014700018F42B1802C0982C212CA4FE10C0B60121
:1014800080E390E00E949B0AA2FE17C0A1FC03C06B
:1014900088E790E002C088E590E0B6010CC08A2D94
:1014A000867859F0A1FE02C08BE201C080E2A7FC61
:1014B0008DE2B60190E00E949B0A891438F4B601CF
:1014C00080E390E00E949B0A9A94F7CF8A94F301FC
:1014D000E80DF11D8081B60190E00E949B0A811009
:1014E000F5CF222009F442CEB60180E290E00E94BE
:1014F0009B0A2A94F6CFF6018681978102C08FEF6E
:101500009FEF2B96E2E10C94510BFC01059061508A
:1015100070400110D8F7809590958E0F9F1F089509
:10152000FC016150704001900110D8F780959095B2
:101530008E0F9F1F08950F931F93CF93DF93FB018F
:10154000238121FD03C08FEF9FEF2CC022FF16C027
:1015500046815781248135814217530744F4A08185
:10156000B1819D012F5F3F4F318320838C93268172
:1015700037812F5F3F4F3783268314C08B01EC01E7
:10158000FB010084F185E02D0995892BE1F6D80156
:1015900016968D919C911797019617969C938E9312
:1015A0001697CE01DF91CF911F910F910895FA0107
:1015B000AA27283051F1203181F1E8946F936E7F92
:1015C0006E5F7F4F8F4F9F4FAF4FB1E03ED0B4E083
:1015D0003CD0670F781F891F9A1FA11D680F791FC4
:1015E0008A1F911DA11D6A0F711D811D911DA11DD5
:1015F00020D009F468943F912AE0269F11243019E5
:10160000305D3193DEF6CF010895462F4770405D7F
:101610004193B3E00FD0C9F7F6CF462F4F70405D2E
:101620004A3318F0495D31FD4052419302D0A9F789
:10163000EACFB4E0A6959795879577956795BA9583
:10164000C9F700976105710508959B01AC010A2E49
:1016500006945795479537952795BA95C9F7620F20
:10166000731F841F951FA01D08952F923F924F92C4
:101670005F926F927F928F929F92AF92BF92CF9222
:10168000DF92EF92FF920F931F93CF93DF93CDB72B
:10169000DEB7CA1BDB0B0FB6F894DEBF0FBECDBFA3
:1016A00009942A88398848885F846E847D848C8474
:1016B0009B84AA84B984C884DF80EE80FD800C817D
:1016C0001B81AA81B981CE0FD11D0FB6F894DEBF60
:0C16D0000FBECDBFED010895F894FFCFD0
:1016DC0001400064646464646464646464646464A9
:1016EC00646464FA64140000000000000000000050
:1016FC0000000000000000000000000000000000DE
:10170C000000000000001464FA646464646464649F
:10171C006464646464646464646400F80101640077
:10172C001D1313061700062500052B00042B0005BE
:10173C002B00032B00020000000000000000000042
:10174C00000000000000000000000000000000008D
:10175C00000000000000000000000000000000007D
:10176C00000000000000000000000000000000006D
:10177C00000000000000000000000000000000005D
:10178C00000000000000000000000000000000004D
:10179C00000000000000000000000000000000003D
:1017AC00000000000000000000000000000000002D
:1017BC0000000000000052554E0A0D0043415345F5
:1017CC000A0D00253032643A253032643A25303225
:1017DC00643B206261743A25756D563B206C3D2547
:1017EC00753B20696E69743A2025303258200D0AF9
:1017FC00005069722073656E736F72732077616924
:10180C00740A0D00636F756E74646F776E0A0D0049
:00000001FF
